{
  "contractName": "UniversityDegree",
  "abi": [
    {
      "inputs": [
        {
          "internalType": "string",
          "name": "",
          "type": "string"
        }
      ],
      "name": "degrees",
      "outputs": [
        {
          "internalType": "string",
          "name": "id",
          "type": "string"
        },
        {
          "internalType": "string",
          "name": "degreeType",
          "type": "string"
        },
        {
          "internalType": "string",
          "name": "degreeName",
          "type": "string"
        },
        {
          "internalType": "string",
          "name": "signature",
          "type": "string"
        }
      ],
      "stateMutability": "view",
      "type": "function",
      "constant": true
    },
    {
      "inputs": [
        {
          "internalType": "string",
          "name": "_id",
          "type": "string"
        },
        {
          "internalType": "string",
          "name": "_degreeType",
          "type": "string"
        },
        {
          "internalType": "string",
          "name": "_degreeName",
          "type": "string"
        },
        {
          "internalType": "string",
          "name": "_signature",
          "type": "string"
        }
      ],
      "name": "storeDegree",
      "outputs": [],
      "stateMutability": "nonpayable",
      "type": "function"
    },
    {
      "inputs": [
        {
          "internalType": "string",
          "name": "_id",
          "type": "string"
        }
      ],
      "name": "getDID",
      "outputs": [
        {
          "internalType": "string",
          "name": "",
          "type": "string"
        },
        {
          "internalType": "string",
          "name": "",
          "type": "string"
        }
      ],
      "stateMutability": "view",
      "type": "function",
      "constant": true
    }
  ],
  "bytecode": "0x608060405234801561001057600080fd5b50610c56806100206000396000f3fe608060405234801561001057600080fd5b50600436106100415760003560e01c8063506e41dc14610046578063b62c1b0214610062578063e078389814610095575b600080fd5b610060600480360381019061005b91906108f1565b6100c6565b005b61007c600480360381019061007791906109c8565b610182565b60405161008c9493929190610a99565b60405180910390f35b6100af60048036038101906100aa91906109c8565b6103e8565b6040516100bd929190610afa565b60405180910390f35b6040518060800160405280858152602001848152602001838152602001828152506000856040516100f79190610b6d565b908152602001604051809103902060008201518160000190805190602001906101219291906106f4565b50602082015181600101908051906020019061013e9291906106f4565b50604082015181600201908051906020019061015b9291906106f4565b5060608201518160030190805190602001906101789291906106f4565b5090505050505050565b6000818051602081018201805184825260208301602085012081835280955050505050506000915090508060000180546101bb90610bb3565b80601f01602080910402602001604051908101604052809291908181526020018280546101e790610bb3565b80156102345780601f1061020957610100808354040283529160200191610234565b820191906000526020600020905b81548152906001019060200180831161021757829003601f168201915b50505050509080600101805461024990610bb3565b80601f016020809104026020016040519081016040528092919081815260200182805461027590610bb3565b80156102c25780601f10610297576101008083540402835291602001916102c2565b820191906000526020600020905b8154815290600101906020018083116102a557829003601f168201915b5050505050908060020180546102d790610bb3565b80601f016020809104026020016040519081016040528092919081815260200182805461030390610bb3565b80156103505780601f1061032557610100808354040283529160200191610350565b820191906000526020600020905b81548152906001019060200180831161033357829003601f168201915b50505050509080600301805461036590610bb3565b80601f016020809104026020016040519081016040528092919081815260200182805461039190610bb3565b80156103de5780601f106103b3576101008083540402835291602001916103de565b820191906000526020600020905b8154815290600101906020018083116103c157829003601f168201915b5050505050905084565b606080600080846040516103fc9190610b6d565b908152602001604051809103902060405180608001604052908160008201805461042590610bb3565b80601f016020809104026020016040519081016040528092919081815260200182805461045190610bb3565b801561049e5780601f106104735761010080835404028352916020019161049e565b820191906000526020600020905b81548152906001019060200180831161048157829003601f168201915b505050505081526020016001820180546104b790610bb3565b80601f01602080910402602001604051908101604052809291908181526020018280546104e390610bb3565b80156105305780601f1061050557610100808354040283529160200191610530565b820191906000526020600020905b81548152906001019060200180831161051357829003601f168201915b5050505050815260200160028201805461054990610bb3565b80601f016020809104026020016040519081016040528092919081815260200182805461057590610bb3565b80156105c25780601f10610597576101008083540402835291602001916105c2565b820191906000526020600020905b8154815290600101906020018083116105a557829003601f168201915b505050505081526020016003820180546105db90610bb3565b80601f016020809104026020016040519081016040528092919081815260200182805461060790610bb3565b80156106545780601f1061062957610100808354040283529160200191610654565b820191906000526020600020905b81548152906001019060200180831161063757829003601f168201915b505050505081525050905060405160200161066e90610c0b565b6040516020818303038152906040528051906020012081600001516040516020016106999190610b6d565b6040516020818303038152906040528051906020012014156106df57604051806020016040528060008152506040518060200160405280600081525092509250506106ef565b8060000151816060015192509250505b915091565b82805461070090610bb3565b90600052602060002090601f0160209004810192826107225760008555610769565b82601f1061073b57805160ff1916838001178555610769565b82800160010185558215610769579182015b8281111561076857825182559160200191906001019061074d565b5b509050610776919061077a565b5090565b5b8082111561079357600081600090555060010161077b565b5090565b6000604051905090565b600080fd5b600080fd5b600080fd5b600080fd5b6000601f19601f8301169050919050565b7f4e487b7100000000000000000000000000000000000000000000000000000000600052604160045260246000fd5b6107fe826107b5565b810181811067ffffffffffffffff8211171561081d5761081c6107c6565b5b80604052505050565b6000610830610797565b905061083c82826107f5565b919050565b600067ffffffffffffffff82111561085c5761085b6107c6565b5b610865826107b5565b9050602081019050919050565b82818337600083830152505050565b600061089461088f84610841565b610826565b9050828152602081018484840111156108b0576108af6107b0565b5b6108bb848285610872565b509392505050565b600082601f8301126108d8576108d76107ab565b5b81356108e8848260208601610881565b91505092915050565b6000806000806080858703121561090b5761090a6107a1565b5b600085013567ffffffffffffffff811115610929576109286107a6565b5b610935878288016108c3565b945050602085013567ffffffffffffffff811115610956576109556107a6565b5b610962878288016108c3565b935050604085013567ffffffffffffffff811115610983576109826107a6565b5b61098f878288016108c3565b925050606085013567ffffffffffffffff8111156109b0576109af6107a6565b5b6109bc878288016108c3565b91505092959194509250565b6000602082840312156109de576109dd6107a1565b5b600082013567ffffffffffffffff8111156109fc576109fb6107a6565b5b610a08848285016108c3565b91505092915050565b600081519050919050565b600082825260208201905092915050565b60005b83811015610a4b578082015181840152602081019050610a30565b83811115610a5a576000848401525b50505050565b6000610a6b82610a11565b610a758185610a1c565b9350610a85818560208601610a2d565b610a8e816107b5565b840191505092915050565b60006080820190508181036000830152610ab38187610a60565b90508181036020830152610ac78186610a60565b90508181036040830152610adb8185610a60565b90508181036060830152610aef8184610a60565b905095945050505050565b60006040820190508181036000830152610b148185610a60565b90508181036020830152610b288184610a60565b90509392505050565b600081905092915050565b6000610b4782610a11565b610b518185610b31565b9350610b61818560208601610a2d565b80840191505092915050565b6000610b798284610b3c565b915081905092915050565b7f4e487b7100000000000000000000000000000000000000000000000000000000600052602260045260246000fd5b60006002820490506001821680610bcb57607f821691505b60208210811415610bdf57610bde610b84565b5b50919050565b50565b6000610bf5600083610b31565b9150610c0082610be5565b600082019050919050565b6000610c1682610be8565b915081905091905056fea26469706673582212202b5d5da58a2502faa0dfb1604edde04e88f1ad1127f69cd61675153bdc79725e64736f6c634300080b0033",
  "immutableReferences": {},
  "source": "// SPDX-License-Identifier: MIT\npragma solidity ^0.8.0;\n\ncontract UniversityDegree {\n\n    struct Degree {\n        string id;\n        string degreeType;\n        string degreeName;\n        string signature;\n    }\n    \n    mapping(string => Degree) public degrees;\n\n    function storeDegree(\n        string memory _id,\n        string memory _degreeType,\n        string memory _degreeName,\n        string memory _signature\n    ) public {\n        degrees[_id] = Degree(_id, _degreeType, _degreeName, _signature);\n    }\n\n    // A funo foi alterada para retornar o `id` e a `assinatura`.\n    function getDID(string memory _id) public view returns (\n        string memory, \n        string memory\n    ) {\n        Degree memory didDoc = degrees[_id];\n\tif (keccak256(abi.encodePacked(didDoc.id)) == keccak256(abi.encodePacked(\"\"))) {\n\t\treturn (\"\",\"\");\n\t}\n\treturn (didDoc.id, didDoc.signature);\n    }\n}\n",
  "sourcePath": "/home/eduardo/TRABALHOS-GUI/V3.0.SEXTA/contracts/UniversityDegree.sol",
  "compiler": {
    "name": "solc",
    "version": "0.8.11+commit.d7f03943.Emscripten.clang"
  },
  "schemaVersion": "3.4.4",
  "updatedAt": "2024-08-16T15:08:37.608Z",
  "networkType": "ethereum",
  "devdoc": {
    "kind": "dev",
    "methods": {},
    "version": 1
  },
  "userdoc": {
    "kind": "user",
    "methods": {},
    "version": 1
  }
}